{
  "contractName": "LipToken",
  "abi": [
    {
      "inputs": [
        {
          "internalType": "string",
          "name": "_name",
          "type": "string"
        },
        {
          "internalType": "string",
          "name": "_symbol",
          "type": "string"
        }
      ],
      "stateMutability": "nonpayable",
      "type": "constructor"
    },
    {
      "anonymous": false,
      "inputs": [
        {
          "indexed": true,
          "internalType": "address",
          "name": "owner",
          "type": "address"
        },
        {
          "indexed": true,
          "internalType": "address",
          "name": "approved",
          "type": "address"
        },
        {
          "indexed": true,
          "internalType": "uint256",
          "name": "tokenId",
          "type": "uint256"
        }
      ],
      "name": "Approval",
      "type": "event"
    },
    {
      "anonymous": false,
      "inputs": [
        {
          "indexed": true,
          "internalType": "address",
          "name": "owner",
          "type": "address"
        },
        {
          "indexed": true,
          "internalType": "address",
          "name": "operator",
          "type": "address"
        },
        {
          "indexed": false,
          "internalType": "bool",
          "name": "approved",
          "type": "bool"
        }
      ],
      "name": "ApprovalForAll",
      "type": "event"
    },
    {
      "anonymous": false,
      "inputs": [
        {
          "indexed": true,
          "internalType": "address",
          "name": "owner",
          "type": "address"
        },
        {
          "indexed": false,
          "internalType": "uint256",
          "name": "id",
          "type": "uint256"
        },
        {
          "indexed": false,
          "internalType": "uint256",
          "name": "dna",
          "type": "uint256"
        }
      ],
      "name": "NewLip",
      "type": "event"
    },
    {
      "anonymous": false,
      "inputs": [
        {
          "indexed": true,
          "internalType": "address",
          "name": "previousOwner",
          "type": "address"
        },
        {
          "indexed": true,
          "internalType": "address",
          "name": "newOwner",
          "type": "address"
        }
      ],
      "name": "OwnershipTransferred",
      "type": "event"
    },
    {
      "anonymous": false,
      "inputs": [
        {
          "indexed": true,
          "internalType": "address",
          "name": "from",
          "type": "address"
        },
        {
          "indexed": true,
          "internalType": "address",
          "name": "to",
          "type": "address"
        },
        {
          "indexed": true,
          "internalType": "uint256",
          "name": "tokenId",
          "type": "uint256"
        }
      ],
      "name": "Transfer",
      "type": "event"
    },
    {
      "inputs": [
        {
          "internalType": "address",
          "name": "to",
          "type": "address"
        },
        {
          "internalType": "uint256",
          "name": "tokenId",
          "type": "uint256"
        }
      ],
      "name": "approve",
      "outputs": [],
      "stateMutability": "nonpayable",
      "type": "function"
    },
    {
      "inputs": [
        {
          "internalType": "address",
          "name": "owner",
          "type": "address"
        }
      ],
      "name": "balanceOf",
      "outputs": [
        {
          "internalType": "uint256",
          "name": "",
          "type": "uint256"
        }
      ],
      "stateMutability": "view",
      "type": "function",
      "constant": true
    },
    {
      "inputs": [
        {
          "internalType": "uint256",
          "name": "tokenId",
          "type": "uint256"
        }
      ],
      "name": "getApproved",
      "outputs": [
        {
          "internalType": "address",
          "name": "",
          "type": "address"
        }
      ],
      "stateMutability": "view",
      "type": "function",
      "constant": true
    },
    {
      "inputs": [
        {
          "internalType": "address",
          "name": "owner",
          "type": "address"
        },
        {
          "internalType": "address",
          "name": "operator",
          "type": "address"
        }
      ],
      "name": "isApprovedForAll",
      "outputs": [
        {
          "internalType": "bool",
          "name": "",
          "type": "bool"
        }
      ],
      "stateMutability": "view",
      "type": "function",
      "constant": true
    },
    {
      "inputs": [
        {
          "internalType": "uint256",
          "name": "",
          "type": "uint256"
        }
      ],
      "name": "lips",
      "outputs": [
        {
          "internalType": "string",
          "name": "name",
          "type": "string"
        },
        {
          "internalType": "uint256",
          "name": "id",
          "type": "uint256"
        },
        {
          "internalType": "uint256",
          "name": "dna",
          "type": "uint256"
        },
        {
          "internalType": "uint8",
          "name": "level",
          "type": "uint8"
        },
        {
          "internalType": "uint8",
          "name": "rarity",
          "type": "uint8"
        }
      ],
      "stateMutability": "view",
      "type": "function",
      "constant": true
    },
    {
      "inputs": [],
      "name": "name",
      "outputs": [
        {
          "internalType": "string",
          "name": "",
          "type": "string"
        }
      ],
      "stateMutability": "view",
      "type": "function",
      "constant": true
    },
    {
      "inputs": [],
      "name": "owner",
      "outputs": [
        {
          "internalType": "address",
          "name": "",
          "type": "address"
        }
      ],
      "stateMutability": "view",
      "type": "function",
      "constant": true
    },
    {
      "inputs": [
        {
          "internalType": "uint256",
          "name": "tokenId",
          "type": "uint256"
        }
      ],
      "name": "ownerOf",
      "outputs": [
        {
          "internalType": "address",
          "name": "",
          "type": "address"
        }
      ],
      "stateMutability": "view",
      "type": "function",
      "constant": true
    },
    {
      "inputs": [],
      "name": "renounceOwnership",
      "outputs": [],
      "stateMutability": "nonpayable",
      "type": "function"
    },
    {
      "inputs": [
        {
          "internalType": "address",
          "name": "from",
          "type": "address"
        },
        {
          "internalType": "address",
          "name": "to",
          "type": "address"
        },
        {
          "internalType": "uint256",
          "name": "tokenId",
          "type": "uint256"
        }
      ],
      "name": "safeTransferFrom",
      "outputs": [],
      "stateMutability": "nonpayable",
      "type": "function"
    },
    {
      "inputs": [
        {
          "internalType": "address",
          "name": "from",
          "type": "address"
        },
        {
          "internalType": "address",
          "name": "to",
          "type": "address"
        },
        {
          "internalType": "uint256",
          "name": "tokenId",
          "type": "uint256"
        },
        {
          "internalType": "bytes",
          "name": "_data",
          "type": "bytes"
        }
      ],
      "name": "safeTransferFrom",
      "outputs": [],
      "stateMutability": "nonpayable",
      "type": "function"
    },
    {
      "inputs": [
        {
          "internalType": "address",
          "name": "operator",
          "type": "address"
        },
        {
          "internalType": "bool",
          "name": "approved",
          "type": "bool"
        }
      ],
      "name": "setApprovalForAll",
      "outputs": [],
      "stateMutability": "nonpayable",
      "type": "function"
    },
    {
      "inputs": [
        {
          "internalType": "bytes4",
          "name": "interfaceId",
          "type": "bytes4"
        }
      ],
      "name": "supportsInterface",
      "outputs": [
        {
          "internalType": "bool",
          "name": "",
          "type": "bool"
        }
      ],
      "stateMutability": "view",
      "type": "function",
      "constant": true
    },
    {
      "inputs": [],
      "name": "symbol",
      "outputs": [
        {
          "internalType": "string",
          "name": "",
          "type": "string"
        }
      ],
      "stateMutability": "view",
      "type": "function",
      "constant": true
    },
    {
      "inputs": [
        {
          "internalType": "uint256",
          "name": "tokenId",
          "type": "uint256"
        }
      ],
      "name": "tokenURI",
      "outputs": [
        {
          "internalType": "string",
          "name": "",
          "type": "string"
        }
      ],
      "stateMutability": "view",
      "type": "function",
      "constant": true
    },
    {
      "inputs": [
        {
          "internalType": "address",
          "name": "from",
          "type": "address"
        },
        {
          "internalType": "address",
          "name": "to",
          "type": "address"
        },
        {
          "internalType": "uint256",
          "name": "tokenId",
          "type": "uint256"
        }
      ],
      "name": "transferFrom",
      "outputs": [],
      "stateMutability": "nonpayable",
      "type": "function"
    },
    {
      "inputs": [
        {
          "internalType": "address",
          "name": "newOwner",
          "type": "address"
        }
      ],
      "name": "transferOwnership",
      "outputs": [],
      "stateMutability": "nonpayable",
      "type": "function"
    },
    {
      "inputs": [
        {
          "internalType": "uint256",
          "name": "_fee",
          "type": "uint256"
        }
      ],
      "name": "updateFee",
      "outputs": [],
      "stateMutability": "nonpayable",
      "type": "function"
    },
    {
      "inputs": [],
      "name": "withdraw",
      "outputs": [],
      "stateMutability": "payable",
      "type": "function",
      "payable": true
    },
    {
      "inputs": [
        {
          "internalType": "string",
          "name": "_name",
          "type": "string"
        }
      ],
      "name": "createRandomLip",
      "outputs": [],
      "stateMutability": "payable",
      "type": "function",
      "payable": true
    },
    {
      "inputs": [],
      "name": "getLips",
      "outputs": [
        {
          "components": [
            {
              "internalType": "string",
              "name": "name",
              "type": "string"
            },
            {
              "internalType": "uint256",
              "name": "id",
              "type": "uint256"
            },
            {
              "internalType": "uint256",
              "name": "dna",
              "type": "uint256"
            },
            {
              "internalType": "uint8",
              "name": "level",
              "type": "uint8"
            },
            {
              "internalType": "uint8",
              "name": "rarity",
              "type": "uint8"
            }
          ],
          "internalType": "struct LipToken.Lip[]",
          "name": "",
          "type": "tuple[]"
        }
      ],
      "stateMutability": "view",
      "type": "function",
      "constant": true
    }
  ],
  "bytecode": "0x6080604052670de0b6b3a76400006008553480156200001d57600080fd5b506040516200208838038062002088833981016040819052620000409162000247565b81518290829062000059906000906020850190620000ea565b5080516200006f906001906020840190620000ea565b5050506200008c620000866200009460201b60201c565b62000098565b505062000304565b3390565b600680546001600160a01b038381166001600160a01b0319831681179093556040519116919082907f8be0079c531659141344cd1fd0a4f28419497f9722a3daafe3b4186f6b6457e090600090a35050565b828054620000f890620002b1565b90600052602060002090601f0160209004810192826200011c576000855562000167565b82601f106200013757805160ff191683800117855562000167565b8280016001018555821562000167579182015b82811115620001675782518255916020019190600101906200014a565b506200017592915062000179565b5090565b5b808211156200017557600081556001016200017a565b600082601f830112620001a257600080fd5b81516001600160401b0380821115620001bf57620001bf620002ee565b604051601f8301601f19908116603f01168101908282118183101715620001ea57620001ea620002ee565b816040528381526020925086838588010111156200020757600080fd5b600091505b838210156200022b57858201830151818301840152908201906200020c565b838211156200023d5760008385830101525b9695505050505050565b600080604083850312156200025b57600080fd5b82516001600160401b03808211156200027357600080fd5b620002818683870162000190565b935060208501519150808211156200029857600080fd5b50620002a78582860162000190565b9150509250929050565b600181811c90821680620002c657607f821691505b60208210811415620002e857634e487b7160e01b600052602260045260246000fd5b50919050565b634e487b7160e01b600052604160045260246000fd5b611d7480620003146000396000f3fe60806040526004361061012a5760003560e01c806370a08231116100ab57806395d89b411161006f57806395d89b411461032f578063a22cb46514610344578063b88d4fde14610364578063c87b56dd14610384578063e985e9c5146103a4578063f2fde38b146103ed57600080fd5b806370a082311461028c578063715018a6146102ba57806383b5daf7146102cf5780638da5cb5b146102f15780639012c4a81461030f57600080fd5b80633ccfd60b116100f25780633ccfd60b1461020057806342842e0e146102085780635ec163db146102285780636352211e14610259578063698d640c1461027957600080fd5b806301ffc9a71461012f57806306fdde0314610164578063081812fc14610186578063095ea7b3146101be57806323b872dd146101e0575b600080fd5b34801561013b57600080fd5b5061014f61014a366004611900565b61040d565b60405190151581526020015b60405180910390f35b34801561017057600080fd5b5061017961045f565b60405161015b9190611ad2565b34801561019257600080fd5b506101a66101a1366004611983565b6104f1565b6040516001600160a01b03909116815260200161015b565b3480156101ca57600080fd5b506101de6101d93660046118d6565b61058b565b005b3480156101ec57600080fd5b506101de6101fb3660046117e2565b6106a1565b6101de6106d2565b34801561021457600080fd5b506101de6102233660046117e2565b61074c565b34801561023457600080fd5b50610248610243366004611983565b610767565b60405161015b959493929190611ae5565b34801561026557600080fd5b506101a6610274366004611983565b61083d565b6101de61028736600461193a565b6108b4565b34801561029857600080fd5b506102ac6102a7366004611794565b61090a565b60405190815260200161015b565b3480156102c657600080fd5b506101de610991565b3480156102db57600080fd5b506102e46109c7565b60405161015b9190611a34565b3480156102fd57600080fd5b506006546001600160a01b03166101a6565b34801561031b57600080fd5b506101de61032a366004611983565b610aed565b34801561033b57600080fd5b50610179610b1c565b34801561035057600080fd5b506101de61035f36600461189a565b610b2b565b34801561037057600080fd5b506101de61037f36600461181e565b610bf0565b34801561039057600080fd5b5061017961039f366004611983565b610c28565b3480156103b057600080fd5b5061014f6103bf3660046117af565b6001600160a01b03918216600090815260056020908152604080832093909416825291909152205460ff1690565b3480156103f957600080fd5b506101de610408366004611794565b610d10565b60006001600160e01b031982166380ac58cd60e01b148061043e57506001600160e01b03198216635b5e139f60e01b145b8061045957506301ffc9a760e01b6001600160e01b03198316145b92915050565b60606000805461046e90611c66565b80601f016020809104026020016040519081016040528092919081815260200182805461049a90611c66565b80156104e75780601f106104bc576101008083540402835291602001916104e7565b820191906000526020600020905b8154815290600101906020018083116104ca57829003601f168201915b5050505050905090565b6000818152600260205260408120546001600160a01b031661056f5760405162461bcd60e51b815260206004820152602c60248201527f4552433732313a20617070726f76656420717565727920666f72206e6f6e657860448201526b34b9ba32b73a103a37b5b2b760a11b60648201526084015b60405180910390fd5b506000908152600460205260409020546001600160a01b031690565b60006105968261083d565b9050806001600160a01b0316836001600160a01b031614156106045760405162461bcd60e51b815260206004820152602160248201527f4552433732313a20617070726f76616c20746f2063757272656e74206f776e656044820152603960f91b6064820152608401610566565b336001600160a01b0382161480610620575061062081336103bf565b6106925760405162461bcd60e51b815260206004820152603860248201527f4552433732313a20617070726f76652063616c6c6572206973206e6f74206f7760448201527f6e6572206e6f7220617070726f76656420666f7220616c6c00000000000000006064820152608401610566565b61069c8383610da8565b505050565b6106ab3382610e16565b6106c75760405162461bcd60e51b815260040161056690611ba6565b61069c838383610f0d565b6006546001600160a01b031633146106fc5760405162461bcd60e51b815260040161056690611b71565b60006107106006546001600160a01b031690565b6040519091506001600160a01b038216904780156108fc02916000818181858888f19350505050158015610748573d6000803e3d6000fd5b5050565b61069c83838360405180602001604052806000815250610bf0565b6009818154811061077757600080fd5b906000526020600020906004020160009150905080600001805461079a90611c66565b80601f01602080910402602001604051908101604052809291908181526020018280546107c690611c66565b80156108135780601f106107e857610100808354040283529160200191610813565b820191906000526020600020905b8154815290600101906020018083116107f657829003601f168201915b50505050600183015460028401546003909401549293909290915060ff8082169161010090041685565b6000818152600260205260408120546001600160a01b0316806104595760405162461bcd60e51b815260206004820152602960248201527f4552433732313a206f776e657220717565727920666f72206e6f6e657869737460448201526832b73a103a37b5b2b760b91b6064820152608401610566565b60085434146108fe5760405162461bcd60e51b8152602060048201526016602482015275151a1948199959481a5cc81b9bdd0818dbdc9c9958dd60521b6044820152606401610566565b610907816110ad565b50565b60006001600160a01b0382166109755760405162461bcd60e51b815260206004820152602a60248201527f4552433732313a2062616c616e636520717565727920666f7220746865207a65604482015269726f206164647265737360b01b6064820152608401610566565b506001600160a01b031660009081526003602052604090205490565b6006546001600160a01b031633146109bb5760405162461bcd60e51b815260040161056690611b71565b6109c560006111f5565b565b60606009805480602002602001604051908101604052809291908181526020016000905b82821015610ae457838290600052602060002090600402016040518060a0016040529081600082018054610a1e90611c66565b80601f0160208091040260200160405190810160405280929190818152602001828054610a4a90611c66565b8015610a975780601f10610a6c57610100808354040283529160200191610a97565b820191906000526020600020905b815481529060010190602001808311610a7a57829003601f168201915b50505091835250506001828101546020808401919091526002840154604084015260039093015460ff808216606085015261010090910416608090920191909152918352920191016109eb565b50505050905090565b6006546001600160a01b03163314610b175760405162461bcd60e51b815260040161056690611b71565b600855565b60606001805461046e90611c66565b6001600160a01b038216331415610b845760405162461bcd60e51b815260206004820152601960248201527f4552433732313a20617070726f766520746f2063616c6c6572000000000000006044820152606401610566565b3360008181526005602090815260408083206001600160a01b03871680855290835292819020805460ff191686151590811790915590519081529192917f17307eab39ab6107e8899845ad3d59bd9653f200f220920489ca2b5937696c31910160405180910390a35050565b610bfa3383610e16565b610c165760405162461bcd60e51b815260040161056690611ba6565b610c2284848484611247565b50505050565b6000818152600260205260409020546060906001600160a01b0316610ca75760405162461bcd60e51b815260206004820152602f60248201527f4552433732314d657461646174613a2055524920717565727920666f72206e6f60448201526e3732bc34b9ba32b73a103a37b5b2b760891b6064820152608401610566565b6000610cbe60408051602081019091526000815290565b90506000815111610cde5760405180602001604052806000815250610d09565b80610ce88461127a565b604051602001610cf99291906119c8565b6040516020818303038152906040525b9392505050565b6006546001600160a01b03163314610d3a5760405162461bcd60e51b815260040161056690611b71565b6001600160a01b038116610d9f5760405162461bcd60e51b815260206004820152602660248201527f4f776e61626c653a206e6577206f776e657220697320746865207a65726f206160448201526564647265737360d01b6064820152608401610566565b610907816111f5565b600081815260046020526040902080546001600160a01b0319166001600160a01b0384169081179091558190610ddd8261083d565b6001600160a01b03167f8c5be1e5ebec7d5bd14f71427d1e84f3dd0314c0f7b2291e5b200ac8c7c3b92560405160405180910390a45050565b6000818152600260205260408120546001600160a01b0316610e8f5760405162461bcd60e51b815260206004820152602c60248201527f4552433732313a206f70657261746f7220717565727920666f72206e6f6e657860448201526b34b9ba32b73a103a37b5b2b760a11b6064820152608401610566565b6000610e9a8361083d565b9050806001600160a01b0316846001600160a01b03161480610ed55750836001600160a01b0316610eca846104f1565b6001600160a01b0316145b80610f0557506001600160a01b0380821660009081526005602090815260408083209388168352929052205460ff165b949350505050565b826001600160a01b0316610f208261083d565b6001600160a01b031614610f885760405162461bcd60e51b815260206004820152602960248201527f4552433732313a207472616e73666572206f6620746f6b656e2074686174206960448201526839903737ba1037bbb760b91b6064820152608401610566565b6001600160a01b038216610fea5760405162461bcd60e51b8152602060048201526024808201527f4552433732313a207472616e7366657220746f20746865207a65726f206164646044820152637265737360e01b6064820152608401610566565b610ff5600082610da8565b6001600160a01b038316600090815260036020526040812080546001929061101e908490611c23565b90915550506001600160a01b038216600090815260036020526040812080546001929061104c908490611bf7565b909155505060008181526002602052604080822080546001600160a01b0319166001600160a01b0386811691821790925591518493918716917fddf252ad1be2c89b69c2b068fc378daa952ba7f163c4a11628f55a4df523b3ef91a4505050565b60006110b96064611378565b905060006110cd662386f26fc10000611378565b6040805160a08101825285815260075460208083019190915291810183905260016060820181905260ff86166080830152600980549182018155600052815180519495509193849360049092027f6e1540171b6c0c960b71a7020d9f60077f6af931a8bbf590da0223dacf75c7af019261114b928492910190611669565b50602082015160018201556040820151600282015560608201516003909101805460809093015160ff9081166101000261ffff1990941692169190911791909117905560075461119c9033906113cd565b600754604080519182526020820184905233917f24d2d558f98bdd9d21339e119fc0b03e213c7d05affd838ac2ee136d90e3bbeb910160405180910390a2600780549060006111ea83611ca1565b919050555050505050565b600680546001600160a01b038381166001600160a01b0319831681179093556040519116919082907f8be0079c531659141344cd1fd0a4f28419497f9722a3daafe3b4186f6b6457e090600090a35050565b611252848484610f0d565b61125e848484846113e7565b610c225760405162461bcd60e51b815260040161056690611b1f565b60608161129e5750506040805180820190915260018152600360fc1b602082015290565b8160005b81156112c857806112b281611ca1565b91506112c19050600a83611c0f565b91506112a2565b60008167ffffffffffffffff8111156112e3576112e3611d12565b6040519080825280601f01601f19166020018201604052801561130d576020820181803683370190505b5090505b8415610f0557611322600183611c23565b915061132f600a86611cbc565b61133a906030611bf7565b60f81b81838151811061134f5761134f611cfc565b60200101906001600160f81b031916908160001a905350611371600a86611c0f565b9450611311565b60008042336040516020016113a992919091825260601b6bffffffffffffffffffffffff1916602082015260340190565b60408051601f1981840301815291905280516020909101209050610d098382611cbc565b6107488282604051806020016040528060008152506114f4565b60006001600160a01b0384163b156114e957604051630a85bd0160e11b81526001600160a01b0385169063150b7a029061142b9033908990889088906004016119f7565b602060405180830381600087803b15801561144557600080fd5b505af1925050508015611475575060408051601f3d908101601f191682019092526114729181019061191d565b60015b6114cf573d8080156114a3576040519150601f19603f3d011682016040523d82523d6000602084013e6114a8565b606091505b5080516114c75760405162461bcd60e51b815260040161056690611b1f565b805181602001fd5b6001600160e01b031916630a85bd0160e11b149050610f05565b506001949350505050565b6114fe8383611527565b61150b60008484846113e7565b61069c5760405162461bcd60e51b815260040161056690611b1f565b6001600160a01b03821661157d5760405162461bcd60e51b815260206004820181905260248201527f4552433732313a206d696e7420746f20746865207a65726f20616464726573736044820152606401610566565b6000818152600260205260409020546001600160a01b0316156115e25760405162461bcd60e51b815260206004820152601c60248201527f4552433732313a20746f6b656e20616c7265616479206d696e746564000000006044820152606401610566565b6001600160a01b038216600090815260036020526040812080546001929061160b908490611bf7565b909155505060008181526002602052604080822080546001600160a01b0319166001600160a01b03861690811790915590518392907fddf252ad1be2c89b69c2b068fc378daa952ba7f163c4a11628f55a4df523b3ef908290a45050565b82805461167590611c66565b90600052602060002090601f01602090048101928261169757600085556116dd565b82601f106116b057805160ff19168380011785556116dd565b828001600101855582156116dd579182015b828111156116dd5782518255916020019190600101906116c2565b506116e99291506116ed565b5090565b5b808211156116e957600081556001016116ee565b600067ffffffffffffffff8084111561171d5761171d611d12565b604051601f8501601f19908116603f0116810190828211818310171561174557611745611d12565b8160405280935085815286868601111561175e57600080fd5b858560208301376000602087830101525050509392505050565b80356001600160a01b038116811461178f57600080fd5b919050565b6000602082840312156117a657600080fd5b610d0982611778565b600080604083850312156117c257600080fd5b6117cb83611778565b91506117d960208401611778565b90509250929050565b6000806000606084860312156117f757600080fd5b61180084611778565b925061180e60208501611778565b9150604084013590509250925092565b6000806000806080858703121561183457600080fd5b61183d85611778565b935061184b60208601611778565b925060408501359150606085013567ffffffffffffffff81111561186e57600080fd5b8501601f8101871361187f57600080fd5b61188e87823560208401611702565b91505092959194509250565b600080604083850312156118ad57600080fd5b6118b683611778565b9150602083013580151581146118cb57600080fd5b809150509250929050565b600080604083850312156118e957600080fd5b6118f283611778565b946020939093013593505050565b60006020828403121561191257600080fd5b8135610d0981611d28565b60006020828403121561192f57600080fd5b8151610d0981611d28565b60006020828403121561194c57600080fd5b813567ffffffffffffffff81111561196357600080fd5b8201601f8101841361197457600080fd5b610f0584823560208401611702565b60006020828403121561199557600080fd5b5035919050565b600081518084526119b4816020860160208601611c3a565b601f01601f19169290920160200192915050565b600083516119da818460208801611c3a565b8351908301906119ee818360208801611c3a565b01949350505050565b6001600160a01b0385811682528416602082015260408101839052608060608201819052600090611a2a9083018461199c565b9695505050505050565b60006020808301818452808551808352604092508286019150828160051b87010184880160005b83811015611ac457603f19898403018552815160a08151818652611a818287018261199c565b838b0151878c0152898401518a88015260608085015160ff9081169189019190915260809485015116939096019290925250509386019390860190600101611a5b565b509098975050505050505050565b602081526000610d09602083018461199c565b60a081526000611af860a083018861199c565b602083019690965250604081019390935260ff918216606084015216608090910152919050565b60208082526032908201527f4552433732313a207472616e7366657220746f206e6f6e20455243373231526560408201527131b2b4bb32b91034b6b83632b6b2b73a32b960711b606082015260800190565b6020808252818101527f4f776e61626c653a2063616c6c6572206973206e6f7420746865206f776e6572604082015260600190565b60208082526031908201527f4552433732313a207472616e736665722063616c6c6572206973206e6f74206f6040820152701ddb995c881b9bdc88185c1c1c9bdd9959607a1b606082015260800190565b60008219821115611c0a57611c0a611cd0565b500190565b600082611c1e57611c1e611ce6565b500490565b600082821015611c3557611c35611cd0565b500390565b60005b83811015611c55578181015183820152602001611c3d565b83811115610c225750506000910152565b600181811c90821680611c7a57607f821691505b60208210811415611c9b57634e487b7160e01b600052602260045260246000fd5b50919050565b6000600019821415611cb557611cb5611cd0565b5060010190565b600082611ccb57611ccb611ce6565b500690565b634e487b7160e01b600052601160045260246000fd5b634e487b7160e01b600052601260045260246000fd5b634e487b7160e01b600052603260045260246000fd5b634e487b7160e01b600052604160045260246000fd5b6001600160e01b03198116811461090757600080fdfea2646970667358221220d70faa92b34e86839f5ce21561fda92169486a5125b2a09f65e23fdc12d2a13364736f6c63430008070033",
  "immutableReferences": {},
  "source": "// SPDX-License-Identifier: MIT \npragma solidity ^0.8.7;\n\nimport \"@openzeppelin/contracts/access/Ownable.sol\";\nimport \"@openzeppelin/contracts/token/ERC20/ERC20.sol\";\nimport \"@openzeppelin/contracts/token/ERC721/ERC721.sol\";\n\ncontract LipToken is ERC721, Ownable {\n    constructor(string memory _name, string memory _symbol) ERC721(_name, _symbol) {}\n    \n    uint256 COUNTER;\n    \n    uint256 fee = 1 ether;\n    \n    struct Lip {\n        string name;\n        uint256 id;\n        uint256 dna;\n        uint8 level;\n        uint8 rarity;\n    }\n    \n    Lip[] public lips;\n    \n    event NewLip(address indexed owner, uint256 id, uint256 dna);\n    \n    // Helpers\n    function _createRandomNumber(uint256 _mod) internal view returns(uint256) {\n        uint256 randomNumber = uint256(keccak256(abi.encodePacked(block.timestamp, msg.sender)));\n        return randomNumber % _mod;\n    }\n    // function _generateRandomDna(string memory _str) internal pure returns(uint256) {\n    //     uint256 randomNumber = uint256(keccak256(abi.encodePacked(_str)));\n    //     return randomNumber % 10**16;\n    // }\n    \n    function updateFee(uint256 _fee) external onlyOwner() {\n        fee = _fee;\n    }\n    \n    function withdraw() external payable onlyOwner() {\n        address payable _owner = payable(owner());\n        _owner.transfer(address(this).balance);\n    }\n    \n    // Creation\n    function _createLip(string memory _name) internal {\n        uint8 randRarity = uint8(_createRandomNumber(100));\n        uint256 randomDna = _createRandomNumber(10**16);\n        Lip memory newLip = Lip(_name, COUNTER, randomDna, 1, randRarity);\n        lips.push(newLip);\n        _safeMint(msg.sender, COUNTER);\n        emit NewLip(msg.sender, COUNTER, randomDna);\n        COUNTER++;\n    }\n    \n    function createRandomLip(string memory _name) public payable {\n        require(msg.value == fee, \"The fee is not correct\");\n        _createLip(_name);\n    }\n    \n    // Getters\n    function getLips() public view returns(Lip[] memory) {\n        return lips;\n    }\n}",
  "sourcePath": "/home/hein/Documents/nft-game/contracts/LipToken.sol",
  "compiler": {
    "name": "solc",
    "version": "0.8.7+commit.e28d00a7.Emscripten.clang"
  },
  "schemaVersion": "3.4.2",
  "updatedAt": "2021-08-12T16:35:39.831Z",
  "networkType": "ethereum",
  "devdoc": {
    "kind": "dev",
    "methods": {
      "approve(address,uint256)": {
        "details": "See {IERC721-approve}."
      },
      "balanceOf(address)": {
        "details": "See {IERC721-balanceOf}."
      },
      "getApproved(uint256)": {
        "details": "See {IERC721-getApproved}."
      },
      "isApprovedForAll(address,address)": {
        "details": "See {IERC721-isApprovedForAll}."
      },
      "name()": {
        "details": "See {IERC721Metadata-name}."
      },
      "owner()": {
        "details": "Returns the address of the current owner."
      },
      "ownerOf(uint256)": {
        "details": "See {IERC721-ownerOf}."
      },
      "renounceOwnership()": {
        "details": "Leaves the contract without owner. It will not be possible to call `onlyOwner` functions anymore. Can only be called by the current owner. NOTE: Renouncing ownership will leave the contract without an owner, thereby removing any functionality that is only available to the owner."
      },
      "safeTransferFrom(address,address,uint256)": {
        "details": "See {IERC721-safeTransferFrom}."
      },
      "safeTransferFrom(address,address,uint256,bytes)": {
        "details": "See {IERC721-safeTransferFrom}."
      },
      "setApprovalForAll(address,bool)": {
        "details": "See {IERC721-setApprovalForAll}."
      },
      "supportsInterface(bytes4)": {
        "details": "See {IERC165-supportsInterface}."
      },
      "symbol()": {
        "details": "See {IERC721Metadata-symbol}."
      },
      "tokenURI(uint256)": {
        "details": "See {IERC721Metadata-tokenURI}."
      },
      "transferFrom(address,address,uint256)": {
        "details": "See {IERC721-transferFrom}."
      },
      "transferOwnership(address)": {
        "details": "Transfers ownership of the contract to a new account (`newOwner`). Can only be called by the current owner."
      }
    },
    "version": 1
  },
  "userdoc": {
    "kind": "user",
    "methods": {},
    "version": 1
  }
}