{
  "contractName": "LipToken",
  "abi": [
    {
      "inputs": [
        {
          "internalType": "string",
          "name": "_name",
          "type": "string"
        },
        {
          "internalType": "string",
          "name": "_symbol",
          "type": "string"
        }
      ],
      "stateMutability": "nonpayable",
      "type": "constructor"
    },
    {
      "anonymous": false,
      "inputs": [
        {
          "indexed": true,
          "internalType": "address",
          "name": "owner",
          "type": "address"
        },
        {
          "indexed": true,
          "internalType": "address",
          "name": "approved",
          "type": "address"
        },
        {
          "indexed": true,
          "internalType": "uint256",
          "name": "tokenId",
          "type": "uint256"
        }
      ],
      "name": "Approval",
      "type": "event"
    },
    {
      "anonymous": false,
      "inputs": [
        {
          "indexed": true,
          "internalType": "address",
          "name": "owner",
          "type": "address"
        },
        {
          "indexed": true,
          "internalType": "address",
          "name": "operator",
          "type": "address"
        },
        {
          "indexed": false,
          "internalType": "bool",
          "name": "approved",
          "type": "bool"
        }
      ],
      "name": "ApprovalForAll",
      "type": "event"
    },
    {
      "anonymous": false,
      "inputs": [
        {
          "indexed": true,
          "internalType": "address",
          "name": "owner",
          "type": "address"
        },
        {
          "indexed": false,
          "internalType": "uint256",
          "name": "id",
          "type": "uint256"
        },
        {
          "indexed": false,
          "internalType": "uint256",
          "name": "dna",
          "type": "uint256"
        }
      ],
      "name": "NewLip",
      "type": "event"
    },
    {
      "anonymous": false,
      "inputs": [
        {
          "indexed": true,
          "internalType": "address",
          "name": "previousOwner",
          "type": "address"
        },
        {
          "indexed": true,
          "internalType": "address",
          "name": "newOwner",
          "type": "address"
        }
      ],
      "name": "OwnershipTransferred",
      "type": "event"
    },
    {
      "anonymous": false,
      "inputs": [
        {
          "indexed": true,
          "internalType": "address",
          "name": "from",
          "type": "address"
        },
        {
          "indexed": true,
          "internalType": "address",
          "name": "to",
          "type": "address"
        },
        {
          "indexed": true,
          "internalType": "uint256",
          "name": "tokenId",
          "type": "uint256"
        }
      ],
      "name": "Transfer",
      "type": "event"
    },
    {
      "inputs": [
        {
          "internalType": "address",
          "name": "to",
          "type": "address"
        },
        {
          "internalType": "uint256",
          "name": "tokenId",
          "type": "uint256"
        }
      ],
      "name": "approve",
      "outputs": [],
      "stateMutability": "nonpayable",
      "type": "function"
    },
    {
      "inputs": [
        {
          "internalType": "address",
          "name": "owner",
          "type": "address"
        }
      ],
      "name": "balanceOf",
      "outputs": [
        {
          "internalType": "uint256",
          "name": "",
          "type": "uint256"
        }
      ],
      "stateMutability": "view",
      "type": "function",
      "constant": true
    },
    {
      "inputs": [
        {
          "internalType": "uint256",
          "name": "tokenId",
          "type": "uint256"
        }
      ],
      "name": "getApproved",
      "outputs": [
        {
          "internalType": "address",
          "name": "",
          "type": "address"
        }
      ],
      "stateMutability": "view",
      "type": "function",
      "constant": true
    },
    {
      "inputs": [
        {
          "internalType": "address",
          "name": "owner",
          "type": "address"
        },
        {
          "internalType": "address",
          "name": "operator",
          "type": "address"
        }
      ],
      "name": "isApprovedForAll",
      "outputs": [
        {
          "internalType": "bool",
          "name": "",
          "type": "bool"
        }
      ],
      "stateMutability": "view",
      "type": "function",
      "constant": true
    },
    {
      "inputs": [
        {
          "internalType": "uint256",
          "name": "",
          "type": "uint256"
        }
      ],
      "name": "lips",
      "outputs": [
        {
          "internalType": "string",
          "name": "name",
          "type": "string"
        },
        {
          "internalType": "uint256",
          "name": "id",
          "type": "uint256"
        },
        {
          "internalType": "uint256",
          "name": "dna",
          "type": "uint256"
        },
        {
          "internalType": "uint8",
          "name": "level",
          "type": "uint8"
        },
        {
          "internalType": "uint8",
          "name": "rarity",
          "type": "uint8"
        }
      ],
      "stateMutability": "view",
      "type": "function",
      "constant": true
    },
    {
      "inputs": [],
      "name": "name",
      "outputs": [
        {
          "internalType": "string",
          "name": "",
          "type": "string"
        }
      ],
      "stateMutability": "view",
      "type": "function",
      "constant": true
    },
    {
      "inputs": [],
      "name": "owner",
      "outputs": [
        {
          "internalType": "address",
          "name": "",
          "type": "address"
        }
      ],
      "stateMutability": "view",
      "type": "function",
      "constant": true
    },
    {
      "inputs": [
        {
          "internalType": "uint256",
          "name": "tokenId",
          "type": "uint256"
        }
      ],
      "name": "ownerOf",
      "outputs": [
        {
          "internalType": "address",
          "name": "",
          "type": "address"
        }
      ],
      "stateMutability": "view",
      "type": "function",
      "constant": true
    },
    {
      "inputs": [],
      "name": "renounceOwnership",
      "outputs": [],
      "stateMutability": "nonpayable",
      "type": "function"
    },
    {
      "inputs": [
        {
          "internalType": "address",
          "name": "from",
          "type": "address"
        },
        {
          "internalType": "address",
          "name": "to",
          "type": "address"
        },
        {
          "internalType": "uint256",
          "name": "tokenId",
          "type": "uint256"
        }
      ],
      "name": "safeTransferFrom",
      "outputs": [],
      "stateMutability": "nonpayable",
      "type": "function"
    },
    {
      "inputs": [
        {
          "internalType": "address",
          "name": "from",
          "type": "address"
        },
        {
          "internalType": "address",
          "name": "to",
          "type": "address"
        },
        {
          "internalType": "uint256",
          "name": "tokenId",
          "type": "uint256"
        },
        {
          "internalType": "bytes",
          "name": "_data",
          "type": "bytes"
        }
      ],
      "name": "safeTransferFrom",
      "outputs": [],
      "stateMutability": "nonpayable",
      "type": "function"
    },
    {
      "inputs": [
        {
          "internalType": "address",
          "name": "operator",
          "type": "address"
        },
        {
          "internalType": "bool",
          "name": "approved",
          "type": "bool"
        }
      ],
      "name": "setApprovalForAll",
      "outputs": [],
      "stateMutability": "nonpayable",
      "type": "function"
    },
    {
      "inputs": [
        {
          "internalType": "bytes4",
          "name": "interfaceId",
          "type": "bytes4"
        }
      ],
      "name": "supportsInterface",
      "outputs": [
        {
          "internalType": "bool",
          "name": "",
          "type": "bool"
        }
      ],
      "stateMutability": "view",
      "type": "function",
      "constant": true
    },
    {
      "inputs": [],
      "name": "symbol",
      "outputs": [
        {
          "internalType": "string",
          "name": "",
          "type": "string"
        }
      ],
      "stateMutability": "view",
      "type": "function",
      "constant": true
    },
    {
      "inputs": [
        {
          "internalType": "uint256",
          "name": "tokenId",
          "type": "uint256"
        }
      ],
      "name": "tokenURI",
      "outputs": [
        {
          "internalType": "string",
          "name": "",
          "type": "string"
        }
      ],
      "stateMutability": "view",
      "type": "function",
      "constant": true
    },
    {
      "inputs": [
        {
          "internalType": "address",
          "name": "from",
          "type": "address"
        },
        {
          "internalType": "address",
          "name": "to",
          "type": "address"
        },
        {
          "internalType": "uint256",
          "name": "tokenId",
          "type": "uint256"
        }
      ],
      "name": "transferFrom",
      "outputs": [],
      "stateMutability": "nonpayable",
      "type": "function"
    },
    {
      "inputs": [
        {
          "internalType": "address",
          "name": "newOwner",
          "type": "address"
        }
      ],
      "name": "transferOwnership",
      "outputs": [],
      "stateMutability": "nonpayable",
      "type": "function"
    },
    {
      "inputs": [
        {
          "internalType": "uint256",
          "name": "_fee",
          "type": "uint256"
        }
      ],
      "name": "updateFee",
      "outputs": [],
      "stateMutability": "nonpayable",
      "type": "function"
    },
    {
      "inputs": [],
      "name": "withdraw",
      "outputs": [],
      "stateMutability": "payable",
      "type": "function",
      "payable": true
    },
    {
      "inputs": [
        {
          "internalType": "string",
          "name": "_name",
          "type": "string"
        }
      ],
      "name": "createRandomLip",
      "outputs": [],
      "stateMutability": "payable",
      "type": "function",
      "payable": true
    },
    {
      "inputs": [],
      "name": "getLips",
      "outputs": [
        {
          "components": [
            {
              "internalType": "string",
              "name": "name",
              "type": "string"
            },
            {
              "internalType": "uint256",
              "name": "id",
              "type": "uint256"
            },
            {
              "internalType": "uint256",
              "name": "dna",
              "type": "uint256"
            },
            {
              "internalType": "uint8",
              "name": "level",
              "type": "uint8"
            },
            {
              "internalType": "uint8",
              "name": "rarity",
              "type": "uint8"
            }
          ],
          "internalType": "struct LipToken.Lip[]",
          "name": "",
          "type": "tuple[]"
        }
      ],
      "stateMutability": "view",
      "type": "function",
      "constant": true
    },
    {
      "inputs": [
        {
          "internalType": "address",
          "name": "_owner",
          "type": "address"
        }
      ],
      "name": "getOwnerLips",
      "outputs": [
        {
          "components": [
            {
              "internalType": "string",
              "name": "name",
              "type": "string"
            },
            {
              "internalType": "uint256",
              "name": "id",
              "type": "uint256"
            },
            {
              "internalType": "uint256",
              "name": "dna",
              "type": "uint256"
            },
            {
              "internalType": "uint8",
              "name": "level",
              "type": "uint8"
            },
            {
              "internalType": "uint8",
              "name": "rarity",
              "type": "uint8"
            }
          ],
          "internalType": "struct LipToken.Lip[]",
          "name": "",
          "type": "tuple[]"
        }
      ],
      "stateMutability": "view",
      "type": "function",
      "constant": true
    },
    {
      "inputs": [
        {
          "internalType": "uint256",
          "name": "_lipId",
          "type": "uint256"
        }
      ],
      "name": "levelUp",
      "outputs": [],
      "stateMutability": "nonpayable",
      "type": "function"
    }
  ],
  "bytecode": "0x6080604052662386f26fc100006008553480156200001c57600080fd5b5060405162002331380380620023318339810160408190526200003f9162000246565b81518290829062000058906000906020850190620000e9565b5080516200006e906001906020840190620000e9565b5050506200008b620000856200009360201b60201c565b62000097565b505062000303565b3390565b600680546001600160a01b038381166001600160a01b0319831681179093556040519116919082907f8be0079c531659141344cd1fd0a4f28419497f9722a3daafe3b4186f6b6457e090600090a35050565b828054620000f790620002b0565b90600052602060002090601f0160209004810192826200011b576000855562000166565b82601f106200013657805160ff191683800117855562000166565b8280016001018555821562000166579182015b828111156200016657825182559160200191906001019062000149565b506200017492915062000178565b5090565b5b8082111562000174576000815560010162000179565b600082601f830112620001a157600080fd5b81516001600160401b0380821115620001be57620001be620002ed565b604051601f8301601f19908116603f01168101908282118183101715620001e957620001e9620002ed565b816040528381526020925086838588010111156200020657600080fd5b600091505b838210156200022a57858201830151818301840152908201906200020b565b838211156200023c5760008385830101525b9695505050505050565b600080604083850312156200025a57600080fd5b82516001600160401b03808211156200027257600080fd5b62000280868387016200018f565b935060208501519150808211156200029757600080fd5b50620002a6858286016200018f565b9150509250929050565b600181811c90821680620002c557607f821691505b60208210811415620002e757634e487b7160e01b600052602260045260246000fd5b50919050565b634e487b7160e01b600052604160045260246000fd5b61201e80620003136000396000f3fe6080604052600436106101405760003560e01c806370a08231116100b657806395d89b411161006f57806395d89b4114610385578063a22cb4651461039a578063b88d4fde146103ba578063c87b56dd146103da578063e985e9c5146103fa578063f2fde38b1461044357600080fd5b806370a08231146102c2578063715018a6146102f057806383b5daf7146103055780638c0b9c54146103275780638da5cb5b146103475780639012c4a81461036557600080fd5b806323b872dd1161010857806323b872dd146102165780633ccfd60b1461023657806342842e0e1461023e5780635ec163db1461025e5780636352211e1461028f578063698d640c146102af57600080fd5b806301ffc9a71461014557806306fdde031461017a578063081812fc1461019c578063095ea7b3146101d45780630ce90ec2146101f6575b600080fd5b34801561015157600080fd5b50610165610160366004611b8a565b610463565b60405190151581526020015b60405180910390f35b34801561018657600080fd5b5061018f6104b5565b6040516101719190611d5c565b3480156101a857600080fd5b506101bc6101b7366004611c0d565b610547565b6040516001600160a01b039091168152602001610171565b3480156101e057600080fd5b506101f46101ef366004611b60565b6105e1565b005b34801561020257600080fd5b506101f4610211366004611c0d565b6106f7565b34801561022257600080fd5b506101f4610231366004611a6c565b61076e565b6101f461079f565b34801561024a57600080fd5b506101f4610259366004611a6c565b610819565b34801561026a57600080fd5b5061027e610279366004611c0d565b610834565b604051610171959493929190611d6f565b34801561029b57600080fd5b506101bc6102aa366004611c0d565b61090a565b6101f46102bd366004611bc4565b610981565b3480156102ce57600080fd5b506102e26102dd366004611a1e565b61099c565b604051908152602001610171565b3480156102fc57600080fd5b506101f4610a23565b34801561031157600080fd5b5061031a610a59565b6040516101719190611cbe565b34801561033357600080fd5b5061031a610342366004611a1e565b610b7f565b34801561035357600080fd5b506006546001600160a01b03166101bc565b34801561037157600080fd5b506101f4610380366004611c0d565b610d77565b34801561039157600080fd5b5061018f610da6565b3480156103a657600080fd5b506101f46103b5366004611b24565b610db5565b3480156103c657600080fd5b506101f46103d5366004611aa8565b610e7a565b3480156103e657600080fd5b5061018f6103f5366004611c0d565b610eb2565b34801561040657600080fd5b50610165610415366004611a39565b6001600160a01b03918216600090815260056020908152604080832093909416825291909152205460ff1690565b34801561044f57600080fd5b506101f461045e366004611a1e565b610f9a565b60006001600160e01b031982166380ac58cd60e01b148061049457506001600160e01b03198216635b5e139f60e01b145b806104af57506301ffc9a760e01b6001600160e01b03198316145b92915050565b6060600080546104c490611ef0565b80601f01602080910402602001604051908101604052809291908181526020018280546104f090611ef0565b801561053d5780601f106105125761010080835404028352916020019161053d565b820191906000526020600020905b81548152906001019060200180831161052057829003601f168201915b5050505050905090565b6000818152600260205260408120546001600160a01b03166105c55760405162461bcd60e51b815260206004820152602c60248201527f4552433732313a20617070726f76656420717565727920666f72206e6f6e657860448201526b34b9ba32b73a103a37b5b2b760a11b60648201526084015b60405180910390fd5b506000908152600460205260409020546001600160a01b031690565b60006105ec8261090a565b9050806001600160a01b0316836001600160a01b0316141561065a5760405162461bcd60e51b815260206004820152602160248201527f4552433732313a20617070726f76616c20746f2063757272656e74206f776e656044820152603960f91b60648201526084016105bc565b336001600160a01b038216148061067657506106768133610415565b6106e85760405162461bcd60e51b815260206004820152603860248201527f4552433732313a20617070726f76652063616c6c6572206973206e6f74206f7760448201527f6e6572206e6f7220617070726f76656420666f7220616c6c000000000000000060648201526084016105bc565b6106f28383611032565b505050565b336107018261090a565b6001600160a01b03161461071457600080fd5b60006009828154811061072957610729611fa6565b6000918252602082206003600490920201908101805491935060ff9091169161075183611f46565b91906101000a81548160ff021916908360ff160217905550505050565b61077833826110a0565b6107945760405162461bcd60e51b81526004016105bc90611e30565b6106f2838383611197565b6006546001600160a01b031633146107c95760405162461bcd60e51b81526004016105bc90611dfb565b60006107dd6006546001600160a01b031690565b6040519091506001600160a01b038216904780156108fc02916000818181858888f19350505050158015610815573d6000803e3d6000fd5b5050565b6106f283838360405180602001604052806000815250610e7a565b6009818154811061084457600080fd5b906000526020600020906004020160009150905080600001805461086790611ef0565b80601f016020809104026020016040519081016040528092919081815260200182805461089390611ef0565b80156108e05780601f106108b5576101008083540402835291602001916108e0565b820191906000526020600020905b8154815290600101906020018083116108c357829003601f168201915b50505050600183015460028401546003909401549293909290915060ff8082169161010090041685565b6000818152600260205260408120546001600160a01b0316806104af5760405162461bcd60e51b815260206004820152602960248201527f4552433732313a206f776e657220717565727920666f72206e6f6e657869737460448201526832b73a103a37b5b2b760b91b60648201526084016105bc565b60085434101561099057600080fd5b61099981611337565b50565b60006001600160a01b038216610a075760405162461bcd60e51b815260206004820152602a60248201527f4552433732313a2062616c616e636520717565727920666f7220746865207a65604482015269726f206164647265737360b01b60648201526084016105bc565b506001600160a01b031660009081526003602052604090205490565b6006546001600160a01b03163314610a4d5760405162461bcd60e51b81526004016105bc90611dfb565b610a57600061147f565b565b60606009805480602002602001604051908101604052809291908181526020016000905b82821015610b7657838290600052602060002090600402016040518060a0016040529081600082018054610ab090611ef0565b80601f0160208091040260200160405190810160405280929190818152602001828054610adc90611ef0565b8015610b295780601f10610afe57610100808354040283529160200191610b29565b820191906000526020600020905b815481529060010190602001808311610b0c57829003601f168201915b50505091835250506001828101546020808401919091526002840154604084015260039093015460ff80821660608501526101009091041660809092019190915291835292019101610a7d565b50505050905090565b60606000610b8c8361099c565b67ffffffffffffffff811115610ba457610ba4611fbc565b604051908082528060200260200182016040528015610c0d57816020015b610bfa6040518060a00160405280606081526020016000815260200160008152602001600060ff168152602001600060ff1681525090565b815260200190600190039081610bc25790505b5090506000805b600954811015610d6e57846001600160a01b0316610c318261090a565b6001600160a01b03161415610d5c5760098181548110610c5357610c53611fa6565b90600052602060002090600402016040518060a0016040529081600082018054610c7c90611ef0565b80601f0160208091040260200160405190810160405280929190818152602001828054610ca890611ef0565b8015610cf55780601f10610cca57610100808354040283529160200191610cf5565b820191906000526020600020905b815481529060010190602001808311610cd857829003601f168201915b5050509183525050600182015460208201526002820154604082015260039091015460ff8082166060840152610100909104166080909101528351849084908110610d4257610d42611fa6565b60200260200101819052508180610d5890611f2b565b9250505b80610d6681611f2b565b915050610c14565b50909392505050565b6006546001600160a01b03163314610da15760405162461bcd60e51b81526004016105bc90611dfb565b600855565b6060600180546104c490611ef0565b6001600160a01b038216331415610e0e5760405162461bcd60e51b815260206004820152601960248201527f4552433732313a20617070726f766520746f2063616c6c65720000000000000060448201526064016105bc565b3360008181526005602090815260408083206001600160a01b03871680855290835292819020805460ff191686151590811790915590519081529192917f17307eab39ab6107e8899845ad3d59bd9653f200f220920489ca2b5937696c31910160405180910390a35050565b610e8433836110a0565b610ea05760405162461bcd60e51b81526004016105bc90611e30565b610eac848484846114d1565b50505050565b6000818152600260205260409020546060906001600160a01b0316610f315760405162461bcd60e51b815260206004820152602f60248201527f4552433732314d657461646174613a2055524920717565727920666f72206e6f60448201526e3732bc34b9ba32b73a103a37b5b2b760891b60648201526084016105bc565b6000610f4860408051602081019091526000815290565b90506000815111610f685760405180602001604052806000815250610f93565b80610f7284611504565b604051602001610f83929190611c52565b6040516020818303038152906040525b9392505050565b6006546001600160a01b03163314610fc45760405162461bcd60e51b81526004016105bc90611dfb565b6001600160a01b0381166110295760405162461bcd60e51b815260206004820152602660248201527f4f776e61626c653a206e6577206f776e657220697320746865207a65726f206160448201526564647265737360d01b60648201526084016105bc565b6109998161147f565b600081815260046020526040902080546001600160a01b0319166001600160a01b03841690811790915581906110678261090a565b6001600160a01b03167f8c5be1e5ebec7d5bd14f71427d1e84f3dd0314c0f7b2291e5b200ac8c7c3b92560405160405180910390a45050565b6000818152600260205260408120546001600160a01b03166111195760405162461bcd60e51b815260206004820152602c60248201527f4552433732313a206f70657261746f7220717565727920666f72206e6f6e657860448201526b34b9ba32b73a103a37b5b2b760a11b60648201526084016105bc565b60006111248361090a565b9050806001600160a01b0316846001600160a01b0316148061115f5750836001600160a01b031661115484610547565b6001600160a01b0316145b8061118f57506001600160a01b0380821660009081526005602090815260408083209388168352929052205460ff165b949350505050565b826001600160a01b03166111aa8261090a565b6001600160a01b0316146112125760405162461bcd60e51b815260206004820152602960248201527f4552433732313a207472616e73666572206f6620746f6b656e2074686174206960448201526839903737ba1037bbb760b91b60648201526084016105bc565b6001600160a01b0382166112745760405162461bcd60e51b8152602060048201526024808201527f4552433732313a207472616e7366657220746f20746865207a65726f206164646044820152637265737360e01b60648201526084016105bc565b61127f600082611032565b6001600160a01b03831660009081526003602052604081208054600192906112a8908490611ead565b90915550506001600160a01b03821660009081526003602052604081208054600192906112d6908490611e81565b909155505060008181526002602052604080822080546001600160a01b0319166001600160a01b0386811691821790925591518493918716917fddf252ad1be2c89b69c2b068fc378daa952ba7f163c4a11628f55a4df523b3ef91a4505050565b60006113436064611602565b90506000611357662386f26fc10000611602565b6040805160a08101825285815260075460208083019190915291810183905260016060820181905260ff86166080830152600980549182018155600052815180519495509193849360049092027f6e1540171b6c0c960b71a7020d9f60077f6af931a8bbf590da0223dacf75c7af01926113d59284929101906118f3565b50602082015160018201556040820151600282015560608201516003909101805460809093015160ff9081166101000261ffff19909416921691909117919091179055600754611426903390611657565b600754604080519182526020820184905233917f24d2d558f98bdd9d21339e119fc0b03e213c7d05affd838ac2ee136d90e3bbeb910160405180910390a26007805490600061147483611f2b565b919050555050505050565b600680546001600160a01b038381166001600160a01b0319831681179093556040519116919082907f8be0079c531659141344cd1fd0a4f28419497f9722a3daafe3b4186f6b6457e090600090a35050565b6114dc848484611197565b6114e884848484611671565b610eac5760405162461bcd60e51b81526004016105bc90611da9565b6060816115285750506040805180820190915260018152600360fc1b602082015290565b8160005b8115611552578061153c81611f2b565b915061154b9050600a83611e99565b915061152c565b60008167ffffffffffffffff81111561156d5761156d611fbc565b6040519080825280601f01601f191660200182016040528015611597576020820181803683370190505b5090505b841561118f576115ac600183611ead565b91506115b9600a86611f66565b6115c4906030611e81565b60f81b8183815181106115d9576115d9611fa6565b60200101906001600160f81b031916908160001a9053506115fb600a86611e99565b945061159b565b600080423360405160200161163392919091825260601b6bffffffffffffffffffffffff1916602082015260340190565b60408051601f1981840301815291905280516020909101209050610f938382611f66565b61081582826040518060200160405280600081525061177e565b60006001600160a01b0384163b1561177357604051630a85bd0160e11b81526001600160a01b0385169063150b7a02906116b5903390899088908890600401611c81565b602060405180830381600087803b1580156116cf57600080fd5b505af19250505080156116ff575060408051601f3d908101601f191682019092526116fc91810190611ba7565b60015b611759573d80801561172d576040519150601f19603f3d011682016040523d82523d6000602084013e611732565b606091505b5080516117515760405162461bcd60e51b81526004016105bc90611da9565b805181602001fd5b6001600160e01b031916630a85bd0160e11b14905061118f565b506001949350505050565b61178883836117b1565b6117956000848484611671565b6106f25760405162461bcd60e51b81526004016105bc90611da9565b6001600160a01b0382166118075760405162461bcd60e51b815260206004820181905260248201527f4552433732313a206d696e7420746f20746865207a65726f206164647265737360448201526064016105bc565b6000818152600260205260409020546001600160a01b03161561186c5760405162461bcd60e51b815260206004820152601c60248201527f4552433732313a20746f6b656e20616c7265616479206d696e7465640000000060448201526064016105bc565b6001600160a01b0382166000908152600360205260408120805460019290611895908490611e81565b909155505060008181526002602052604080822080546001600160a01b0319166001600160a01b03861690811790915590518392907fddf252ad1be2c89b69c2b068fc378daa952ba7f163c4a11628f55a4df523b3ef908290a45050565b8280546118ff90611ef0565b90600052602060002090601f0160209004810192826119215760008555611967565b82601f1061193a57805160ff1916838001178555611967565b82800160010185558215611967579182015b8281111561196757825182559160200191906001019061194c565b50611973929150611977565b5090565b5b808211156119735760008155600101611978565b600067ffffffffffffffff808411156119a7576119a7611fbc565b604051601f8501601f19908116603f011681019082821181831017156119cf576119cf611fbc565b816040528093508581528686860111156119e857600080fd5b858560208301376000602087830101525050509392505050565b80356001600160a01b0381168114611a1957600080fd5b919050565b600060208284031215611a3057600080fd5b610f9382611a02565b60008060408385031215611a4c57600080fd5b611a5583611a02565b9150611a6360208401611a02565b90509250929050565b600080600060608486031215611a8157600080fd5b611a8a84611a02565b9250611a9860208501611a02565b9150604084013590509250925092565b60008060008060808587031215611abe57600080fd5b611ac785611a02565b9350611ad560208601611a02565b925060408501359150606085013567ffffffffffffffff811115611af857600080fd5b8501601f81018713611b0957600080fd5b611b188782356020840161198c565b91505092959194509250565b60008060408385031215611b3757600080fd5b611b4083611a02565b915060208301358015158114611b5557600080fd5b809150509250929050565b60008060408385031215611b7357600080fd5b611b7c83611a02565b946020939093013593505050565b600060208284031215611b9c57600080fd5b8135610f9381611fd2565b600060208284031215611bb957600080fd5b8151610f9381611fd2565b600060208284031215611bd657600080fd5b813567ffffffffffffffff811115611bed57600080fd5b8201601f81018413611bfe57600080fd5b61118f8482356020840161198c565b600060208284031215611c1f57600080fd5b5035919050565b60008151808452611c3e816020860160208601611ec4565b601f01601f19169290920160200192915050565b60008351611c64818460208801611ec4565b835190830190611c78818360208801611ec4565b01949350505050565b6001600160a01b0385811682528416602082015260408101839052608060608201819052600090611cb490830184611c26565b9695505050505050565b60006020808301818452808551808352604092508286019150828160051b87010184880160005b83811015611d4e57603f19898403018552815160a08151818652611d0b82870182611c26565b838b0151878c0152898401518a88015260608085015160ff9081169189019190915260809485015116939096019290925250509386019390860190600101611ce5565b509098975050505050505050565b602081526000610f936020830184611c26565b60a081526000611d8260a0830188611c26565b602083019690965250604081019390935260ff918216606084015216608090910152919050565b60208082526032908201527f4552433732313a207472616e7366657220746f206e6f6e20455243373231526560408201527131b2b4bb32b91034b6b83632b6b2b73a32b960711b606082015260800190565b6020808252818101527f4f776e61626c653a2063616c6c6572206973206e6f7420746865206f776e6572604082015260600190565b60208082526031908201527f4552433732313a207472616e736665722063616c6c6572206973206e6f74206f6040820152701ddb995c881b9bdc88185c1c1c9bdd9959607a1b606082015260800190565b60008219821115611e9457611e94611f7a565b500190565b600082611ea857611ea8611f90565b500490565b600082821015611ebf57611ebf611f7a565b500390565b60005b83811015611edf578181015183820152602001611ec7565b83811115610eac5750506000910152565b600181811c90821680611f0457607f821691505b60208210811415611f2557634e487b7160e01b600052602260045260246000fd5b50919050565b6000600019821415611f3f57611f3f611f7a565b5060010190565b600060ff821660ff811415611f5d57611f5d611f7a565b60010192915050565b600082611f7557611f75611f90565b500690565b634e487b7160e01b600052601160045260246000fd5b634e487b7160e01b600052601260045260246000fd5b634e487b7160e01b600052603260045260246000fd5b634e487b7160e01b600052604160045260246000fd5b6001600160e01b03198116811461099957600080fdfea26469706673582212206eaa9acbe98e1055c27ec97046375dc4428b5cc1de77363e826060fcb9b4da2f64736f6c63430008070033",
  "immutableReferences": {},
  "source": "// SPDX-License-Identifier: MIT\n\npragma solidity ^0.8.0;\n\nimport \"@openzeppelin/contracts/token/ERC721/ERC721.sol\";\nimport \"@openzeppelin/contracts/access/Ownable.sol\";\n\ncontract LipToken is ERC721, Ownable {\n  constructor(string memory _name, string memory _symbol)\n    ERC721(_name, _symbol)\n  {}\n\n  uint256 COUNTER;\n\n  uint256 fee = 0.01 ether;\n\n  struct Lip {\n    string name;\n    uint256 id;\n    uint256 dna;\n    uint8 level;\n    uint8 rarity;\n  }\n\n  Lip[] public lips;\n\n  event NewLip(address indexed owner, uint256 id, uint256 dna);\n\n  // Helpers\n  function _createRandomNum(uint256 _mod) internal view returns (uint256) {\n    uint256 randomNum = uint256(\n      keccak256(abi.encodePacked(block.timestamp, msg.sender))\n    );\n    return randomNum % _mod;\n  }\n\n  function updateFee(uint256 _fee) external onlyOwner() {\n    fee = _fee;\n  }\n\n  function withdraw() external payable onlyOwner() {\n    address payable _owner = payable(owner());\n    _owner.transfer(address(this).balance);\n  }\n\n  // Creation\n  function _createLip(string memory _name) internal {\n    uint8 randRarity = uint8(_createRandomNum(100));\n    uint256 randDna = _createRandomNum(10**16);\n    Lip memory newLip = Lip(_name, COUNTER, randDna, 1, randRarity);\n    lips.push(newLip);\n    _safeMint(msg.sender, COUNTER);\n    emit NewLip(msg.sender, COUNTER, randDna);\n    COUNTER++;\n  }\n\n  function createRandomLip(string memory _name) public payable {\n    require(msg.value >= fee);\n    _createLip(_name);\n  }\n\n  // Getters\n  function getLips() public view returns (Lip[] memory) {\n    return lips;\n  }\n\n  function getOwnerLips(address _owner) public view returns (Lip[] memory) {\n    Lip[] memory result = new Lip[](balanceOf(_owner));\n    uint256 counter = 0;\n    for (uint256 i = 0; i < lips.length; i++) {\n      if (ownerOf(i) == _owner) {\n        result[counter] = lips[i];\n        counter++;\n      }\n    }\n    return result;\n  }\n\n  // Actions\n  function levelUp(uint256 _lipId) public {\n    require(ownerOf(_lipId) == msg.sender);\n    Lip storage lip = lips[_lipId];\n    lip.level++;\n  }\n}\n",
  "sourcePath": "/home/hein/Documents/nft-game/contracts/LipToken.sol",
  "compiler": {
    "name": "solc",
    "version": "0.8.7+commit.e28d00a7.Emscripten.clang"
  },
  "schemaVersion": "3.4.2",
  "updatedAt": "2021-08-13T09:12:20.560Z",
  "networkType": "ethereum",
  "devdoc": {
    "kind": "dev",
    "methods": {
      "approve(address,uint256)": {
        "details": "See {IERC721-approve}."
      },
      "balanceOf(address)": {
        "details": "See {IERC721-balanceOf}."
      },
      "getApproved(uint256)": {
        "details": "See {IERC721-getApproved}."
      },
      "isApprovedForAll(address,address)": {
        "details": "See {IERC721-isApprovedForAll}."
      },
      "name()": {
        "details": "See {IERC721Metadata-name}."
      },
      "owner()": {
        "details": "Returns the address of the current owner."
      },
      "ownerOf(uint256)": {
        "details": "See {IERC721-ownerOf}."
      },
      "renounceOwnership()": {
        "details": "Leaves the contract without owner. It will not be possible to call `onlyOwner` functions anymore. Can only be called by the current owner. NOTE: Renouncing ownership will leave the contract without an owner, thereby removing any functionality that is only available to the owner."
      },
      "safeTransferFrom(address,address,uint256)": {
        "details": "See {IERC721-safeTransferFrom}."
      },
      "safeTransferFrom(address,address,uint256,bytes)": {
        "details": "See {IERC721-safeTransferFrom}."
      },
      "setApprovalForAll(address,bool)": {
        "details": "See {IERC721-setApprovalForAll}."
      },
      "supportsInterface(bytes4)": {
        "details": "See {IERC165-supportsInterface}."
      },
      "symbol()": {
        "details": "See {IERC721Metadata-symbol}."
      },
      "tokenURI(uint256)": {
        "details": "See {IERC721Metadata-tokenURI}."
      },
      "transferFrom(address,address,uint256)": {
        "details": "See {IERC721-transferFrom}."
      },
      "transferOwnership(address)": {
        "details": "Transfers ownership of the contract to a new account (`newOwner`). Can only be called by the current owner."
      }
    },
    "version": 1
  },
  "userdoc": {
    "kind": "user",
    "methods": {},
    "version": 1
  }
}